:100000000C9434000C9451000C9451000C94510049
:100010000C9451000C9451000C9451000C94140158
:100020000C9451000C9451000C9451000C94440118
:100030000C9446010C9437010C9451000C9451001F
:100040000C9451000C9451000C9451000C945100EC
:100050000C9451000C9451000C9451000C945100DC
:100060000C9451000C94510011241FBECFEFD8E026
:10007000DEBFCDBF11E0A0E0B1E0E2E8F7E002C0F2
:1000800005900D92AC31B107D9F721E0ACE1B1E0B8
:1000900001C01D92A632B207E1F70E94F7010C944D
:1000A000BF030C94000084E60C9463018CE90C946B
:1000B0006301CF93C82F8A3019F48DE00E94590054
:1000C0008091C00085FFFCCFC093C60080E090E027
:1000D000CF9108958091C00087FFFCCF8091C6002A
:1000E00090E008951092C50083E38093C400E0EC93
:1000F000F0E080818D7F808386E08093C20088E17C
:100100008093C10008950E947200E0E2F1E08EE069
:1001100091E09383828380E091E0918380830895CE
:1001200082E08093B00094E09093B10080937000DF
:1001300089EF8093B3000895CF93DF9300D000D070
:10014000CDB7DEB78FB7F89420911C0130911D0117
:1001500040911E0150911F0129833A834B835C8398
:100160008FBF69817A818B819C810F900F900F9056
:100170000F90DF91CF910895E4E6F0E080818F7BCE
:100180008083E0E7F0E08081826080830895E0E78B
:10019000F0E080818D7F8083E4E6F0E08081806400
:1001A000808308958FB7F89410921C0110921D015E
:1001B00010921E0110921F018FBF0895462F572FD6
:1001C000BC012FB7F89480911C0190911D01A09162
:1001D0001E01B0911F01840F951FA61FB71F8093AA
:1001E0001C0190931D01A0931E01B0931F012FBF0E
:1001F0000895462F572FBC012FB7F89480911C010A
:1002000090911D01A0911E01B0911F01841B950BBF
:10021000A60BB70B80931C0190931D01A0931E01A8
:10022000B0931F012FBF08951F921FB61F92112474
:100230008F939F93AF93BF9380911C0190911D0169
:10024000A0911E01B0911F010196A11DB11D8093C7
:100250001C0190931D01A0931E01B0931F01BF913B
:10026000AF919F918F911F901FBE1F9018958F93F4
:100270009F9384E294E690938500809384005D9A36
:100280005E9A9F918F9118955D9818955E98189534
:10029000559A569A1092800082E08093810087E000
:1002A00080936F0084E294E69093850080938400AD
:1002B00084E090E7909389008093880090938B006E
:1002C00080938A000895CF93DF9300D000D0CDB7FC
:1002D000DEB794E6980F993CC8F5282F880F330BAA
:1002E000440B550B29833A834B835C83CA01B901C4
:1002F0000E94C60221E73DE34AE951E469837A831B
:100300008B839C8369817A818B819C810E945203BB
:1003100020E038E040EE56E469837A838B839C8347
:1003200069817A818B819C810E94290269837A8309
:100330008B839C8369817A818B819C810E94950249
:10034000462F572F50938900409388000F900F90AD
:100350000F900F90DF91CF910895CF93DF9300D04E
:1003600000D0CDB7DEB794E6980F993CC8F5282F9A
:10037000880F330B440B550B29833A834B835C83E3
:10038000CA01B9010E94C60221E73DE34AE951E4EE
:1003900069837A838B839C8369817A818B819C8139
:1003A0000E94520320E038E040EE56E469837A83ED
:1003B0008B839C8369817A818B819C810E94290235
:1003C00069837A838B839C8369817A818B819C8109
:1003D0000E949502462F572F50938B0040938A001E
:1003E0000F900F900F900F90DF91CF9108950E9482
:1003F00048018CE90E94630178942098289A2198FA
:10040000229A1899FECF2FEF81EE94E02150804080
:100410009040E1F700C00000299A2A980E945300FA
:100420002FEF8BE792E9215080409040E1F700C028
:10043000000029982A9A0E9456002FEF8BE792E934
:10044000215080409040E1F700C000002A98D9CFA9
:100450005058BB27AA270E9440020C9418030E9400
:100460000A0338F00E94110320F039F49F3F19F479
:1004700026F40C9407030EF4E095E7FB0C940103BB
:10048000E92F0E94290358F3BA17620773078407FC
:10049000950720F079F4A6F50C944B030EF4E09543
:1004A0000B2EBA2FA02D0B01B90190010C01CA012E
:1004B000A0011124FF27591B99F0593F50F4503ED9
:1004C00068F11A16F040A22F232F342F4427585FCB
:1004D000F3CF469537952795A795F0405395C9F7E3
:1004E0007EF41F16BA0B620B730B840BBAF091509B
:1004F000A1F0FF0FBB1F661F771F881FC2F70EC03A
:10050000BA0F621F731F841F48F48795779567950C
:10051000B795F7959E3F08F0B0CF9395880F08F0F8
:100520009927EE0F9795879508950E94310388F0DB
:100530009F5798F0B92F9927B751B0F0E1F0660FA7
:10054000771F881F991F1AF0BA95C9F714C0B130E8
:1005500091F00E944B03B1E008950C944B03672F78
:10056000782F8827B85F39F0B93FCCF38695779517
:100570006795B395D9F73EF4909580957095619500
:100580007F4F8F4F9F4F0895E89409C097FB3EF42B
:1005900090958095709561957F4F8F4F9F4F9923D0
:1005A000A9F0F92F96E9BB279395F695879577954E
:1005B0006795B795F111F8CFFAF4BB0F11F460FF0E
:1005C0001BC06F5F7F4F8F4F9F4F16C0882311F066
:1005D00096E911C0772321F09EE8872F762F05C07A
:1005E000662371F096E8862F70E060E02AF09A9515
:1005F000660F771F881FDAF7880F9695879597F90A
:10060000089597F99F6780E870E060E008959FEF94
:1006100080EC089500240A94161617061806090699
:10062000089500240A941216130614060506089568
:10063000092E0394000C11F4882352F0BB0F40F4F0
:10064000BF2B11F460FF04C06F5F7F4F8F4F9F4F30
:10065000089557FD9058440F551F59F05F3F71F0B2
:100660004795880F97FB991F61F09F3F79F0879519
:100670000895121613061406551FF2CF4695F1DFA2
:1006800008C0161617061806991FF1CF8695710532
:10069000610508940895E894BB2766277727CB0166
:1006A00097F908950E9465030C9418030E940A03A9
:1006B00038F00E94110320F0952311F00C940103EF
:1006C0000C94070311240C944C030E94290370F32B
:1006D000959FC1F3950F50E0551F629FF001729FE7
:1006E000BB27F00DB11D639FAA27F00DB11DAA1FF6
:1006F000649F6627B00DA11D661F829F2227B00D43
:10070000A11D621F739FB00DA11D621F839FA00DCD
:10071000611D221F749F3327A00D611D231F849F1D
:10072000600D211D822F762F6A2F11249F57504074
:100730009AF0F1F088234AF0EE0FFF1FBB1F661FEF
:10074000771F881F91505040A9F79E3F510580F0B8
:100750000C9401030C944C035F3FE4F3983ED4F3F4
:10076000869577956795B795F795E7959F5FC1F75C
:10077000FE2B880F911D9695879597F90895F8940B
:02078000FFCFA9
:10078200000000010000000000006A0000000000FC
:0C07920000020000000059000000000000
:00000001FF
